:020000040800F2
:10000000F006002075020008152500080D250008DF
:1000100011250008A50D00084D280008000000006B
:100020000000000000000000000000001D25000886
:10003000A90D00080000000019250008212500086E
:100040009902000899020008990200089902000824
:100050009902000899020008990200089902000814
:100060009902000899020008990200089902000804
:1000700099020008990200089902000899020008F4
:1000800099020008990200089902000899020008E4
:1000900099020008990200089902000899020008D4
:1000A0009902000839250008990200089902000801
:1000B00099020008990200089902000899020008B4
:1000C00099020008990200089902000899020008A4
:1000D00099020008F5270008990200089902000813
:1000E0009902000899020008990200089902000884
:1000F0009902000899020008990200089902000874
:100100009902000899020008990200089902000863
:100110009902000899020008990200089902000853
:100120009902000899020008990200089902000843
:100130009902000899020008990200089902000833
:100140009902000899020008990200089902000823
:100150009902000899020008990200089902000813
:100160009902000899020008990200089902000803
:100170009902000899020008990200080000000096
:10018000990200089902000800F002F800F062F8F5
:1001900014A696E8000CB244B344DA4501D100F04D
:1001A00059F8BAE80F000FA696E83000A5EB040551
:1001B00004EB0607AAEB0704A7F101074FEA1515A0
:1001C0004FEA3414A4F10104AC4201D300F042F828
:1001D00013F0010F18BFFB1A43F0010300F001F800
:1001E000DBE718473CDB00005CDB0000103A24BF73
:1001F00078C878C1FAD8520724BF30C830C144BF8C
:1002000004680C6070470000704700000023002461
:1002100000250026103A28BF78C1FBD8520728BF16
:1002200030C148BF0B60704766290AF044857829C1
:1002300000F0E080002070471FB50AF02AFD00F0B2
:100240003FFC0400002000210AF0FCF9E0601FBD23
:1002500010B510BD00F038FD1146FFF7EDFF09F0B5
:10026000EFFB00F056FD03B4FFF7F2FF03BC02F012
:10027000EFFA00000C48016841F4700101600B487E
:1002800080470B480047FEE7FEE7FEE7FEE7FEE794
:10029000FEE7FEE7FEE7FEE7FEE700000548064949
:1002A000044A064B7047000088ED00E02525000851
:1002B00089010008F0020020F0060020F002002072
:1002C000704753EA020C00F069802DE9F04B4FF0C3
:1002D0000006002B1FBFB3FA83F503FA05F424FAD6
:1002E00005F65E4012BF1643B2FA82F502FA05F433
:1002F000C5F120051EBF22FA05FC44EA0C04203596
:1003000056EA044C4FEA144418BF641C4FF000082E
:100310004FF00009904271EB030C39D3002919BF4B
:10032000B1FA81F701FA07F6B0FA80F700FA07F69A
:10033000C7F120071EBF20FA07FC46EA0C0620374B
:10034000B6FBF4FCA7EB0507103F07F01F0BCBF142
:1003500020062CFA06F60CFA0BFB44BFB346002627
:10036000202FA4BF5E464FF0000B5BEA060C08BFCF
:100370004FF0010B19EB0B0948EB0608ABFB027CB5
:1003800006FB02CC0BFB03CCC01B71EB0C01C1E7DD
:100390000B46024641464846BDE8F08B13B508437C
:1003A00018BF4FF0FF300146AFF30080BDE81C409E
:1003B000704700000FB4044910B503AA029800F07A
:1003C0006DFB10BC5DF814FBB80000200FB41CB529
:1003D000074B06AA7B4469460090059800F045FB50
:1003E0000020694600F054FB1CBC5DF814FB0000C3
:1003F000B906000070B504460D4621461068AFF3FB
:1004000000802188090502D50F4A7A4402E00E4A8D
:100410007A440E32002104F1240305E000F00F06B7
:100420000009965D5E54491C0028F7D1207800230E
:10043000000704D5702D02D009B1022311322046E5
:10044000BDE8704000F0A4B8ACA800002DE9F0476A
:100450004FF0000A89460446C0F820A02046E16813
:100460008847002876D0252806D0D4E90121904776
:10047000206A401C2062F1E7E16820460025884799
:10048000C4F81CA006460027C4F818A02A2E09D0DC
:1004900030460AF0CFF838B304EB8708303EC8F88E
:1004A000186019E059F8041B204604EB870291619B
:1004B000E1688847012F064618D1E069002820DA54
:1004C00025F020051DE0D8F8180000EB800006EBB1
:1004D00040003038C8F818002046E16888470646D2
:1004E0000AF0A8F80028EED1012F0AD02E2E08D14C
:1004F0002046E16888477F1C0646022F45F020050C
:10050000C4DBA069002803DA404245F00105A06180
:10051000E80701D025F01005B6B1A6F14100192871
:1005200002D8203645F400654A463146204625600B
:100530004D46FFF779FE58B1012806D0ED1D25F094
:10054000070000F1080989E704E005F1040985E7DF
:1005500030468AE7206ABDE8F087000010B50446FF
:1005600003E002F077FA401C09D014F8010B0549AA
:100570000028F6D1BDE810400A2002F06BBA4FF017
:10058000FF3010BDB80000207047704770477047BB
:100590002DE9F0470D4699469246044600F124089D
:1005A0000168880604D5E06921F01001216000E0AF
:1005B0000120A84201DD471B00E00027A1697A194C
:1005C00002EB0900081AA0612078C00602D4204678
:1005D000AFF30080002608E0D4E901211AF80600F4
:1005E0009047206A401C761C20624E45F4DB207840
:1005F000C0060AD52046AFF3008006E0D4E9012109
:1006000030209047206A401C2062381EA7F1010765
:10061000F4DC07E0D4E9012118F805009047206ACE
:10062000401C2062281EA5F10105F3DC2046AFF333
:1006300000802078000602D50220BDE8F087012066
:10064000FBE72DE9FF4F0C461E464FF0FF378BB0FE
:10065000D2E90001DDF860800A908A46C1F30A55AC
:1006600005B93D46002108464FF00000BAF1000FE1
:1006700000F4400005DA00EB80004FF4400101EA8D
:1006800050004FEA9059B9F1010F00DDB9460A98C0
:1006900050EA4A000ED044F61050A5F2FF3545430B
:1006A0002F14B8F1000F1ED07542291E1EDDC9F1AE
:1006B00000021CE0B8F1010F4FF0000001D0302122
:1006C00003E0F24305E02154401CB042FBDB30461E
:1006D0000022002121540B99C1F80880C1E90020B3
:1006E0000FB0BDE8F08FBD1B6D1CDEE74A4600DA97
:1006F000694206A800F06EFA06AB93E8070003AB68
:1007000083E8070050460A9909F0B3FB8DE807001B
:10071000A0F500501F3800900398002D0ADD42F22A
:100720001F014A460844002303A90390684609F0C4
:100730001DFE09E0A0F500504A461F38002303A91A
:100740000390684609F027FE8DE807000004000CBE
:1007500003D04FF0FF30410800E01046B8F1000F21
:1007600003D00022009215461EE0751E05D400F04D
:10077000ABF9303262556D1EF9D5B34601220843FC
:1007800002D000227F1C04E02078302801D1002212
:100790007F1E002A099784D01DE0112D07DA00F092
:1007A00093F9303262556D1C50EA0102F5D10843CD
:1007B00002D00098C8B10EE00021681E05E0235C5D
:1007C000625C63542254401E491C8142F7DBAB46F5
:1007D000A81B401E0990002004F80B000B98099AF2
:1007E000C0F80880C0E9002B7AE711264FF0000816
:1007F00057E72DE9F04F88460446D21D22F0070145
:1008000091B0D1E90001CDE90A0109F0FBFE0246F1
:100810000B98C00F01D02D2007E02068810701D57B
:100820002B2002E0202101EAC000032A099001D018
:10083000072A05DB03464146204600F08BF90BE111
:100840002078800601D5E06900E00620B8F1650F48
:10085000814606D0B8F1660F18D0B8F1670F70D195
:1008600031E00020B9F1110F009001DB112301E00C
:1008700009F101030AAA01A90CA8FFF7E2FEDDE9CC
:100880000C70002609F10105834647E001204B4624
:1008900000904FF000470AAA01A90CA8FFF7D1FE6B
:1008A000DDE90DB00C995D46002610B909F1010093
:1008B0000D18B9EB050003D4C0F1FF3609F10105AD
:1008C000A5EB09002BE0B9F1010F01DA4FF00109A6
:1008D0000020B9F1110F0090484601DD112300E01E
:1008E00003460AAA01A90CA8FFF7ABFEDDE90C70CC
:1008F0004D4600268346207800070AD4AB4500DA2F
:100900005D4601A8012D04DD411911F8011C3029B3
:1009100007D04F4502DA17F1040F04DA01208246AE
:100920000FE06D1EEEE7002F02DCED1B3E4403E0FE
:10093000781CA84200DD7D1CB81B00F1010A4FF0B5
:1009400000472078000703D4AA4501DB4FF0FF3AA7
:100950000021B7F1004F0DF143088DF8431024D06A
:1009600002202B23002F01DA7F422D230A21021EB1
:10097000A0F1010000DC5FB197FBF1FC97FBF1F205
:1009800001FB1C7C17460CF1300C08F801CDEEE79A
:10099000A8F1010003702188090501D5452100E077
:1009A0006521A0F1010800F8011C09980FA9A1EB2D
:1009B0000807FF1D00B10120411901EBEA70A16990
:1009C0003844081A401EA0612078C00602D4204690
:1009D000AFF30080099828B1D4E901219047206A3B
:1009E000401C20622078C00622D52046AFF300804C
:1009F0001EE0002E04DBB34502DD01A8805D00E0AF
:100A00003020D4E901219047206A401C2062761CE6
:100A1000AAF101005FEA000A0AD100F051F8C068AB
:100A20000168405CD4E901219047206A401C2062A3
:100A3000281EA5F10105DCDC07E0D4E9012118F846
:100A4000010B9047206A401C2062381EA7F1010765
:100A5000F3DC2046AFF30080032011B041E6000034
:100A600001694A1C02610878704700B58FB0CDE972
:100A700001310021059105497944CDE90310114662
:100A80006846FFF7E3FC0FB000BD0000E5FFFFFF85
:100A90000A6802F8010B0A6070470000074B70B546
:100AA0000D467B44FFF7E1FF0446284600F004F9B9
:100AB00010B14FF0FF3070BD204670BDAF1F000079
:100AC000004870477800002030B5B0F10A0271F19B
:100AD00000034FEA900E4EEA817EB0EB0E0061EB10
:100AE00091014FEA101E4EEA017E10EB0E0041EB21
:100AF00011114FEA102E4EEA016E10EB0E0041EB81
:100B000011214FEA104E4EEA014E10EB0E0041EB60
:100B10001141401841F100014FEAD00040EA417014
:100B20004FEAD1014FEA810444EA907410EB80054A
:100B300044EB01046D1944EB0404521BA3414FF034
:100B4000000348BF0A3200D530BD401C41F100010E
:100B500030BD00002DE9F0411F4604460326016820
:100B6000072A01F4006004DB08B116A505E016A50C
:100B700003E008B115A500E015A521F010002060E4
:100B8000A069C01EA0610FB1401EA0612046AFF356
:100B900000804FB1D4E9012138469047206A401CBB
:100BA0002062C01C206206E0206AFAE7D4E9012135
:100BB00015F8010B9047761EF8D22046AFF300805F
:100BC000BDE8F0814E414E006E616E00494E460018
:100BD000696E66002DE9F047814616468AB03548B1
:100BE00078440DC88DE80D0032487844801C03AC71
:100BF0000DC884E80D0041F69B300844372190FB76
:100C0000F1F290FBF1F5A5F1800501FB12041B3C0C
:100C100002D56442012000E00020DFF898A0804661
:100C20000027FA44AAF1BE0A0EE0E0070AD03246D5
:100C3000684607EB470101230AEB810109F0ABFB92
:100C40008DE8070064107F1C002CEED1194F7F4403
:100C5000AE3F19E0E80715D007EB04100DF1180AB4
:100C600090E80E008AE80E00C068F04201D19819A1
:100C700008903246012306A903A809F08CFB03ABB8
:100C800083E807006D10641C002DE3D14FF00103D1
:100C900032466946B8F1000F03A802D009F066FB9E
:100CA00001E009F078FBC9E90001C9F808200AB0A1
:100CB000BDE8F0877CA10000007B00F08000704759
:100CC00000487047580000207546FFF7F9FFAE4610
:100CD00005006946534620F00700854618B020B548
:100CE000FFF7DCFABDE820404FF000064FF00007A8
:100CF0004FF000084FF0000BAC46ACE8C009ACE880
:100D0000C009ACE8C009ACE8C00921F007018D4674
:100D1000704710B50446AFF300802046BDE8104090
:100D2000FFF7A1BA0000000030B44FF0013C50F8CA
:100D3000042B51F8043BCCFA52F4D51A20D1FCB95B
:100D400050F8042B51F8043BCCFA52F4D51A17D1C1
:100D5000B4B950F8042B51F8043BCCFA52F4D51A2C
:100D60000ED16CB950F8042B51F8043BCCFA52F474
:100D7000D51A05D1002CDAD030BC4FF000007047F6
:100D800029BAB1FA81F111F01801D1F120008440A3
:100D9000F2D1CA40CB4012F0FF0213F0FF0330BC87
:100DA000D01A7047FEE7000070470000B3F5804F8F
:100DB000034618D1B0B553F822C00020CCF6F0702D
:100DC0000CEA000CD1E9000ED1E9024540EA0C0022
:100DD00040EA0E10896940EA042040EA05400143D8
:100DE000BDE8B04001E06FF07041002043F82210F0
:100DF000704700002DE9F043D1E900E8844601F195
:100E0000080999E879025CF82E208027CFF6F07760
:100E10003A4042EA08021A4322432A4332430B6A09
:100E200042EA09024C6A1A438B6A2243CC6A1A438B
:100E3000CB6B2243096B1A431143014308284FF03F
:100E4000000008BF41F040014CF82E10BDE8F083CF
:100E5000F0B500EB82025068D1E902E400F0404CAA
:100E6000D1E90030D1E9045643EA0C03002743EAF4
:100E70000010CFF6F07740EA0E20896907EB0555A0
:100E800040EA04402843FE36084340EA0661002059
:100E90005160F0BD70B5866D044600F039F994F8E4
:100EA0003510022928D105462068216C026822F0FD
:100EB00016020260426922F08002426109B9A16C07
:100EC00019B1016821F008010160016821F00101F8
:100ED000016000BF20680068C00714D000F018F956
:100EE000401B0628F6D320206065002084F83400DB
:100EF000032084F8350070BD80206065002084F8F0
:100F00003400012070BDE06D3F2101FA00F0B060B7
:100F10000020012184F8340084F8351070BD0000F1
:100F200090F83510022909D1052180F835100068A4
:100F3000016821F0010101600020704780214165B6
:100F4000012070472DE9F04F83B000F1200200F13D
:100F50003E4741F60045009207F1FF77C4F20205D3
:100F600008224FEAB726A84208BF0722072E38BF3B
:100F70004FEAB72200274FF0000A4FF00008019215
:100F80000AE000BF08F101080AF1020AB8F1100FE7
:100F900007F1040700F09C800D68012202FA08FBAB
:100FA00015EA0B09EED04D6805F0030EAEF1010213
:100FB000012A4FF0030202FA0AFC10D88268CC68BA
:100FC00022EA0C0204FA0AF4224382604268C5F362
:100FD000001422EA0B0204FA08F422434260BEF134
:100FE000030F1CD0C2688C6822EA0C0204FA0AF4CF
:100FF0002243BEF1020FC26011D16FF00302009DC7
:1010000002EA580207F01C040F2355F802E003FA25
:1010100004F60B692EEA0606A3403343AB50026880
:101020004B6822EA0C0203F0030606FA0AF6324382
:10103000DB000260A6D5002243F644030292C4F20C
:1010400002031A6843F6004442F480421A601A68A8
:10105000C4F2010402F480420292029A28F00302D0
:101060004FF6084C2244CFF6FF7C52F80C3007F0C4
:101070000C060F25B540AB43019D05FA06F6334338
:1010800042F80C3022684B6842EA0906DD0358BF7B
:1010900022EA0906266062689D0342EA090658BFF3
:1010A00022EA09066660A268DD0242EA090643F602
:1010B0000C4558BF22EA0906A660C4F201052A6859
:1010C0009B0242EA090658BF22EA09062E6059E748
:1010D00003B0BDE8F08F00000069084018BF012090
:1010E00070470000426902EA0103914341EA03416B
:1010F00081617047002A08BF0904816170470000C0
:1011000042F20000CEF204000068000C70470000BC
:1011100040F2EC20C2F200000068704740F250003C
:1011200040F2EC21C2F20000C2F2000100780A682D
:10113000104408607047000080B543F60040C4F2D8
:101140000200016841F400710160016841F48061AE
:101150000160052000F070F80F2000F005F800F0A5
:101160002BF8002080BD0000B0B540F25002C2F262
:10117000000240F204011278C2F200014FF47A73C7
:101180000968B3FBF2F20446B1FBF2F1084600F045
:101190008DFB0F2C4FF001050CD858B94FF0FF30E4
:1011A00021460022002500F01BF840F25400C2F254
:1011B000000004602846B0BD70470000002848BF0A
:1011C000704700F01F01012202FA01F11C2202EA1D
:1011D000D0004EF20012CEF20002815070470000A3
:1011E00010B54EF60C5CCEF2000CDCF80030C3F308
:1011F000022E8EF00704042C28BF0424BEF1030342
:101200004FF0FF3E0EFA04F438BF0023A14399408B
:101210000EFA03F39A43114300F1604200F00F030A
:10122000090102F56442043B6344002848BF03F10E
:101230000C02117010BD00004EF60C51CEF20001F0
:101240000A684FF6FF031A4060F30A2242F08060FA
:1012500040F0FD7008607047002804BF012070470F
:101260002DE9F04143F60808C4F202080446D8F814
:10127000F8030D4600F00700884207D288F8F853BB
:10128000D8F8F80300F00700A84276D1206881075B
:1012900017D5410705D5D8F8001041F4E051C8F83A
:1012A0000010010705D5D8F8001041F46041C8F8D6
:1012B0000010D8F80010A26821F0F0011143C8F81E
:1012C0000010C0073FD1D8F8F80300F00700A8428B
:1012D00007D988F8F853D8F8F80300F00700A842B7
:1012E0004BD12068410707D5D8F80010E26821F4F7
:1012F000E0511143C8F80010000708D5D8F80000E5
:10130000216920F4604040EAC100C8F8000000F004
:101310007BF8D8F800104AF68652C1F30311C0F6E4
:101320000002515C40F2040220FA01F140F2540044
:10133000C2F200000068C2F200021160FFF714FF61
:101340000020BDE8F0816068811E022907D258F8AC
:10135000081C89015CBF0120BDE8F08110E0012874
:1013600007D158F8081C89035CBF0120BDE8F08153
:1013700006E058F8081C890702D40120BDE8F08176
:10138000D8F8001021F003010843C8F80000FFF767
:10139000BFFE064641F28837D8F80000616800F0C9
:1013A0000C00B0EB810F8ED0FFF7B2FE801BB8426D
:1013B000F2D90320BDE8F08140F2040043F60801B1
:1013C000C2F20000C4F20201006809684AF69652AF
:1013D000C1F38221C0F60002515CC8407047000092
:1013E00040F2040043F60801C2F20000C4F2020118
:1013F000006809684AF69652C1F34231C0F600020D
:10140000515CC8407047000010B543F60404C4F2B4
:101410000204606800F00C0142F200400829C0F2AA
:10142000F40007D0042918BF10BD41F20020C0F21B
:101430007A0010BD216801F03F022168236849024B
:10144000C3F3881105D4A1FB00010023FEF739FF87
:1014500006E041F20020C0F27A004843B0FBF2F00F
:1014600021680222C1F3014102EB4101B0FBF1F01E
:1014700010BD0000002804BF012070472DE9F04195
:1014800082B00446007843F60006C007C4F20206A4
:1014900049D0B06800F00C00042809D130688003FE
:1014A00041D5606800283ED1012002B0BDE8F0813E
:1014B000B06800F00C00082802D170684002EDD43A
:1014C00065683068B5F5A02F05D0B5F5803F09D126
:1014D00040F480300CE040F480203060306840F40C
:1014E000803005E020F480303060306820F48020C7
:1014F0003060FFF70DFE002D054611D030688003E7
:1015000011D4FFF705FE401B6428F7D928E100BF7E
:10151000FFF7FEFD401B64284FF0030000F2E0805F
:1015200030688003F4D4207880071BD5B06810F0B1
:101530000C0F09D0B06800F00C00082840F085803E
:101540007068400200F181803068800703D5E06850
:10155000012840F09A803068216920F0F80040EAC4
:10156000C10030602078000734D42078400746D48A
:10157000A5695DB3B06800F00C00082840F09C80BD
:10158000012D00F082807068E16900F480028A42D7
:101590007BD1216A00F03F028A4276D147F6C071C2
:1015A000626A0140B1EB821F6FD1A16A4FF6FF73EF
:1015B000C903994300F44032A1F580318A4264D1D5
:1015C000E16A00F07060B0EB016F5ED1002002B004
:1015D000BDE8F081606900285BD00020C4F247209C
:1015E0000121C0F8801EFFF793FD0546706F80074C
:1015F000BBD4FFF78DFD401B0228F7D9B0E0306C5B
:101600005FEAC0080AD400200190306C40F080509E
:101610003064306C00F080500190019847F2000770
:10162000C4F200073868C00526D4386840F48070DA
:101630003860FFF76DFD05463868C0051CD4FFF71C
:1016400067FD401B0228F7D98AE0E068002840F2D5
:101650000000C4F2472053D001210160FFF758FD7C
:10166000054600BF306880073FF575AFFFF750FDB6
:10167000401B0228F6D973E0A568306F052D51D0C4
:10168000012D56D140F0010059E0012002B0BDE823
:10169000F0810020C4F247200021C0F8801EFFF72F
:1016A00037FD0546706F80077FF55FAFFFF730FDB0
:1016B000401B0228F6D953E00027C4F24727002038
:1016C0003866FFF725FD022D05460DD130688001F3
:1016D0005DD5FFF71DFD401B02284FF00300F5D933
:1016E00002B0BDE8F08100BF306880017FF56EAFC9
:1016F000FFF70EFD401B02284FF00300F4D9EFE77F
:1017000000210160FFF704FD054600BF3068800737
:101710007FF528AFFFF7FCFC401B02284FF00300C9
:10172000F4D9DDE740F004003067306F40F001008D
:1017300005E020F001003067306F20F004003067D2
:10174000FFF7E6FC002D054641F2883713D000BFB5
:10175000306F800712D4FFF7DBFC401BB842F7D98B
:10176000032002B0BDE8F081FFF7D2FC401BB84275
:101770004FF00300B4D8306F8007F5D4B8F1000FF4
:101780003FF5F6AE306C20F080503064F0E604F1A6
:101790001C052FCD084340EA8210D9034FF6FF7293
:1017A0009143A1F5803140EA056008437060012053
:1017B0003866FFF7ADFC0446306880013FF506AFA0
:1017C000FFF7A6FC001B02284FF00300F4D987E7BF
:1017D000002804BF0120704770B5044690F8490006
:1017E00015460E4628B9002084F84800204600F02F
:1017F0001BF8206804F10801FFF7FCFA2068A268D2
:101800003146FFF725FBD4E90102236B2946FFF798
:10181000CDFA2068A16850F8212042F0010240F87A
:101820002120002070BD0000B0B586B0002043F636
:1018300030010190C4F202018A6840F6004442F08F
:1018400001028A608A68C4F2020402F00102019275
:10185000019A01900A6801AD42F008020A600A6824
:1018600002F008020192019A0190086840F010000D
:1018700008600868012100F01000019001984CF206
:101880000370019002200290CDE903100C20059016
:1018900020462946FFF756FB4FF68070019004F56D
:1018A00080602946FFF74EFB06B0B0BD411E002008
:1018B000B0EB116F1CBF012070474EF21002CEF248
:1018C000000251604EF62351CEF20001F0230B705E
:1018D000072190601160704770470000704700005A
:1018E00090F83D1001291CBF01207047022180F8AB
:1018F0003D10006841F2FF72C168C4F200029042DC
:1019000041F00101C1600DDC40F2FF71C4F2000141
:10191000884215DCB0F1804F29D040F20041C4F27A
:10192000000122E040F2FF31C4F20101884212DCE2
:1019300041F60001C4F20001884218D0002112E0F3
:1019400040F60001C4F20001884210D040F6004188
:10195000C4F2000109E044F20001C4F2010188422E
:1019600005D040F20041C4F20101884206D18168ED
:1019700001F00701062904BF00207047016841F00B
:1019800001010160002070477047000010B5044657
:1019900000680169890744BFC1685FEA81713FD46B
:1019A00020680169490744BFC1685FEA417143D4B7
:1019B00020680169090744BFC1685FEA017148D422
:1019C00020680169C90644BFC1685FEAC1614CD49F
:1019D00020680169C9071CBFC1685FEAC17151D1A4
:1019E00020680169090644BFC1685FEA016150D4FB
:1019F00020680169490644BFC1685FEA41614FD46C
:101A000021680869800646BFC8685FEA806010BD2B
:101A10006FF0200220460A61BDE81040FFF75EBF6C
:101A20006FF00201016101212177806980073ED0BA
:101A30002046FFF7A9FF40E06FF004010161022199
:101A40002177806910F4407F3AD02046FFF79CFF51
:101A50003CE06FF00801016104212177C069800733
:101A600037D02046FFF790FF39E06FF01001016199
:101A700008212177C06910F4407F33D02046FFF75A
:101A800083FF35E06FF001010161204600F0EAFAC2
:101A9000A6E76FF0800101612046FFF71DFFA7E771
:101AA0006FF040010161204600F00CFBA8E72046E2
:101AB00000F022F8204600F0F7F9002020776FE7C9
:101AC000204600F019F8204600F0EEF900202077BB
:101AD0006EE7204600F010F8204600F0E5F90020FF
:101AE00020776DE7204600F007F8204600F0DCF98B
:101AF000002020776CE700007047000090F83C3031
:101B0000012B04BF022070474FEAB2020123032ACF
:101B100080F83C3000F2F7802DE9F043DFE802F076
:101B200002AF3D7D036840F200461A6A43F48065C7
:101B300022F001021A621C6A1A46D3F804C052F855
:101B400018EF8F6824F00204C4F20106B54244EA9B
:101B5000070405D1CF6824F00C0427F004073C43A8
:101B60000F68B54206D1D1E905582CF440762E43D2
:101B700046EA080C2EF073063743C3F804C09F6191
:101B80004F6809695F631C629F6947F008079F619E
:101B90009F6927F004079F61B0E0036840F20048A6
:101BA0001A6A43F4806522F480721A621C6A1A462B
:101BB000D3F804C052F81CEF8F6824F40074C4F208
:101BC0000108454544EA072408D1CF6840F2FF46A2
:101BD0003F0224F4406427EA06063443D1F800901B
:101BE000454506D1D1E905562CF440572E4347EA26
:101BF000061C2EF0730747EA0907C3F804C0DF612B
:101C00004F680969DF631C62DF6947F00807DF611D
:101C1000DF6927F00407DF6170E0036840F20045E8
:101C20001A6A43F4806722F480521A621A46D3F883
:101C300020C05C6852F81C8FD1F800E08E68C4F2B6
:101C40000105AF4204D14D6924F4804444EA85146F
:101C50002CF4005747EA063728F4E64646EA0E26F3
:101C60005C60DE614E6809691E641F62DF6947F4CB
:101C70000067DF61DF6927F48067DF613DE00368AB
:101C800040F200481A6A43F4806522F010021A629A
:101C90001C6A1A46D3F804C052F818EF8F6824F073
:101CA0002004C4F20108454544EA071407D1CF686F
:101CB0006FF0400624F0C00406EA07163443D1F85A
:101CC0000090454506D1D1E905562CF440672E43D6
:101CD00047EA860C2EF4E64747EA0927C3F804C012
:101CE0009F614F6809699F631C629F6947F40067A1
:101CF0009F619F6927F480679F61090213681943F8
:101D00001160BDE8F043002180F83C1000207047CE
:101D1000002804BF0120704710B5044690F83D002C
:101D200028B9002084F83C00204600F01FF802206B
:101D300084F83D002068211D00F004FC012084F897
:101D4000460084F83E0084F83F0084F8400084F8A0
:101D5000410084F8420084F8430084F8440084F889
:101D6000450084F83D00002010BD00002DE9F04141
:101D700086B00024C4F202040068A4F580318842D1
:101D800002D006B0BDE8F081002743F6300001978D
:101D9000C4F20200416904F5806641F0010141612D
:101DA000416901AD01F001010191019901970168BB
:101DB0004FF0010841F001010160016801F00101EB
:101DC000019101990197016841F0010101600168E9
:101DD00001F00101019101990197016841F00101B0
:101DE0000160016801F00101019101990197016809
:101DF00041F002010160016801F0020101910199C5
:101E00000197016841F002010160016801F00201DF
:101E1000019101990197016841F002010160006898
:101E2000294600F00200019001984FF40050019003
:101E30000320049030460397CDF80880FFF782F81E
:101E40004FF48040019030462946FFF77BF84FF46D
:101E50000040019030462946FFF774F84FF4807037
:101E600001900220CDE90207CDE904082046294669
:101E7000FFF768F84FF40070019020462946FFF7FD
:101E800061F84FF48060019020462946FFF75AF828
:101E9000192002210222FFF7A3F91920FFF78EF97A
:101EA00006B0BDE8F081000070470000412208291B
:101EB00008BF4022042908BF3F22002908BF3E2254
:101EC000825C012A1CBF01207047022241B108290F
:101ED00009D0042914BF80F8412080F83F2004E095
:101EE00080F83E2001E080F84020006801F01F01EA
:101EF0000122036A02FA01F123EA01020262026A84
:101F00000A4341F2FF71C4F20001884202620BDC15
:101F100040F2FF71C4F20001884213DCB0F1804F3F
:101F200045D040F2004115E040F2FF32C4F2010218
:101F3000904214DC41F60003C4F20003984236D00C
:101F4000002314E040F60001C4F2000188422ED0C4
:101F500040F60041C4F20001884228D02EE044F24D
:101F60000003C4F20103984221D040F20043C4F2BE
:101F70000103984222D1436C884243F400434364F6
:101F8000C6DD904207DC41F60001C4F20001884240
:101F90000DD0002107E044F20001C4F201018842A3
:101FA00005D040F20041C4F20101884206D18168A7
:101FB00001F00701062904BF00207047016841F0C5
:101FC000010101600020704710B5026801F01F0E8A
:101FD0004FF0010C146A0CFA0EF324EA03031362A7
:101FE00040F20043D2F820C042F48064C4F20103FE
:101FF0009C42C2F820C00DD1136A41F21114234251
:1020000008D1136A40F24444234203D1536C23F4B1
:1020100000435364136A41F21114234204D1136A3A
:1020200040F24444234212D0082916D0042909D092
:1020300000294FF0010114BF80F8411080F83E10D4
:10204000002010BD012180F83F10002010BD136852
:1020500023F0010313600829E8D1012180F8401022
:10206000002010BDB0B500680021C4F20101884213
:1020700000D0B0BD40F20C04C2F200042078012868
:1020800018BFB0BDA579012000F0EEFC022D18BFED
:10209000C0F10700A070A07806280DD8A07858B12C
:1020A000A07840F23801C2F2000101EB800050F844
:1020B000040CBDE8B040004707F030FE002020705F
:1020C000B0BD00007047000070470000704700007E
:1020D00090F83D1090F83E000843C0B270470000F1
:1020E000B0B582B002681168D468536901F02F0559
:1020F000202D04F0200505D125B102B0BDE8B04087
:1021000000F0B8BA5FEA017C1EBF03F0010E04F4D0
:10211000907313EB0E0340D1036BCD0618D5012B42
:1021200016D114F0100313D0002101911168019110
:102130005168019101995169490647D4818DC38D38
:10214000C58D002D18BF994240F0D78002B0B0BDB8
:102150000B062AD514F0800327D090F83D102129D2
:10216000F4D18168B1F5805F03D10169002900F0E5
:10217000E180016A4B1C036209785160C18C01390E
:102180000B04C184E2D1D06820F08000D060D06818
:1021900040F04000D06002B0B0BDCA0718BF14F4D0
:1021A000807240D14A0744D44AE04906CED514F0A3
:1021B0004001CBD0D16821F04001D160202180F8CE
:1021C0003D1002B0BDE8B04000F09EB9816B0B68D5
:1021D0005B689DB2002DB9D0848DA542B6D2C3856F
:1021E000CB69B3F5807F19D0D368044623F480739C
:1021F000D360536923F001035361536923F0400313
:102200005361202380F83E3000230363D3680846DF
:1022100023F01003D360FEF73DFE2046818DC28D72
:10222000891A89B27CE0026C42F0010202644A071A
:1022300006D5BEF1000F03D0026C42F00202026428
:102240008A0706D5BEF1000F03D0026C42F00402EB
:102250000264BCF1000F06D55EEA050203D0026CF1
:1022600042F008020264026C002A3FF46FAF890654
:1022700004D51DB1044600F0FDF9204601684A6905
:10228000036C02F0400203F00803D2182ED0CA6893
:1022900022F49072CA604A6922F001024A61026B1C
:1022A000012A03D1CA6822F01002CA60202280F8F5
:1022B0003E20002202634A69520636D54A6922F05E
:1022C00040024A61816B81B342F26962C0F600024A
:1022D000044608460A65FEF723FE00283FF436AFA1
:1022E000A06B016D02B0BDE8B04008470446FFF79F
:1022F000EDFE0020206402B0B0BDD568C91A25F4F7
:102300009075D560556989B225F001055561202584
:1023100080F83E5000250563D56825F01003D36092
:1023200002B0BDE8B040FFF7CFBE02B0BDE8B0409C
:10233000FFF7CCBE016A31F8023B6FF35F235360B5
:1023400001621BE7002804BF0120704710B5044656
:1023500090F83D0028B9002084F83C00204600F0A9
:1023600021F8242084F83D002068C16821F4005140
:10237000C160204600F0CEF92068016921F4904147
:102380000161416921F02A014161C16841F40051B4
:10239000C16000202021206484F83D1084F83E10A4
:1023A00010BD000070B586B040F20044C4F20204D3
:1023B0000068A4F57441884201D006B070BD0020C9
:1023C00043F630010190C4F202014A6901AD42F0C6
:1023D00010024A614A69072602F010020192019A2E
:1023E00001900A6842F002020A600A6802F00202E2
:1023F0000192019A0190086840F0020008600868A4
:10240000012100F00200019001984020019002207B
:102410000290CDE90310204629460596FEF792FD6D
:1024200080200190204629460596FEF78BFD252049
:10243000FEF7C4FE252003210322FEF7D1FE06B0DD
:1024400070BD0000034690F83E0020280AD1002904
:102450004FF0010018BF002A00D1704793F83C00EC
:10246000012801D1022070470020186399622221BF
:102470009A85DA85186483F83E10196883F83C0061
:10248000CA6842F48072CA604A6942F001024A6135
:10249000CA6842F02002CA6070470000006841F23A
:1024A0000001C4F20101884200D0704740F2D420FC
:1024B000C2F20000B0F90010002948BF704740F296
:1024C0007412C2F2000289B21378B1F5804F05D2BE
:1024D0000D2B0ED141F480420280704748F2000C6F
:1024E0000022CFF6FF7C0A2B08BF41EA0C020280D3
:1024F000704740F20C22C2F2000253544A1CC62913
:1025000088BF00220280704770470000FEE700008D
:10251000FEE70000704700007047000070470000B1
:10252000FEF7FCBD4EF68850CEF20000016841F483
:10253000700101607047000040F20C10C2F2000010
:10254000FFF724BA10B540F6FF3E0368C4F2000E50
:1025500040F2004C7045C4F2010C0FDCB0F1804F2A
:1025600019D040F20042C4F20002904213D040F66B
:102570000002C4F2000290420DD010E040F600428A
:10258000C4F20002904206D0604504D00022C4F29A
:102590000102904203D14A6823F07003134341F6CD
:1025A000FF72C4F2000290420FDC704521DCB0F1F2
:1025B000804F41D040F20042C4F2000290423BD032
:1025C00040F60002C4F2000234E043F6FF72C4F2A7
:1025D000010290421EDC42F20002C4F2000290426C
:1025E0002AD00022C4F20102904225D0604523D0B7
:1025F00026E040F60042C4F2000290421CD041F6B0
:102600000002C4F20002904216D041F60042C4F229
:1026100000020FE044F20002C4F2010290420BD02B
:1026200044F60002C4F20102904205D044F2004296
:10263000C4F20102904203D1CA6823F440731343E9
:1026400023F080024B69D1F800E08C681A430260E5
:10265000C46240F48062C0F828E0624504BF0969A2
:1026600001630121416110BD806B0021C185C184DE
:10267000FFF72CBD90F83E10222941D18268B2F5B7
:10268000805F01D10169E1B3816AB2F5805F07D053
:102690000AB9026922B10268526802F07F0201E0C1
:1026A000026852680A70816A01318162C18D013904
:1026B0000A04C18518BF704710B50168CA6822F0C6
:1026C0002002CA60CA6822F48072CA604A6922F095
:1026D00001024A61202280F83E20026B012A08D1C3
:1026E000CA68044622F01002CA60818DFFF7ECFC34
:1026F00002E00446FFF7D2FE00202063BDE8104050
:1027000070470168826A49686FF35F2122F8021BF3
:102710008262CBE7B0B50446006804F108030ECB33
:102720000569194325F440552A4302616269E3694A
:102730001143C268194349F20C639A431143C160C3
:102740004169A26921F4407141F20043114340F410
:102750008062C4F201039A42416102D1FEF740FE59
:1027600001E0FEF729FEE1694FF69C7563681922C6
:10277000C0F6FF75B1F5004FA0FB02011CD15A0055
:10278000DB0FFDF79EFD48F21F51C5F2EB11A0FBD8
:1027900001235A0905F1805302FB0300322303EBA6
:1027A000C000A0FB01014FF4F87000EA111000EB2B
:1027B0000210C1F3421118E09A009B0FFDF781FD52
:1027C00048F21F51C5F2EB11A0FB01235A0902FB8D
:1027D0000500322303EB0010A0FB0101F02000EA0A
:1027E000511000EB0210C1F34311084421688860C6
:1027F000B0BD0000F0B581B040F2C814C2F20004D0
:102800004FF6FE762046C0F20106FFF769FC002570
:102810002046FFF75DFC202803D0B54205F10105F5
:10282000F6D940F2C81440F274150027C2F2000431
:10283000C2F20005204629460122FFF703FE18B127
:10284000B74207F10107F5D901B0F0BDFEE700007E
:102850007047000070B582B0002643F6440201962E
:10286000C4F20202136840F20C1443F00103136037
:102870001268C2F2000402F001020192019A0022E1
:10288000C4F20102C4E902602046C4E90021C4E99F
:102890000466A661FFF73CFA40F25415C2F2000547
:1028A0006020C5E90006204629460022C5E90266E7
:1028B000C5E90466AE61FFF721F9204629460422E6
:1028C000FFF71CF9204629460822FFF717F9204692
:1028D0000021FFF7EBFA20460421FFF7E7FA204634
:1028E000082102B0BDE87040FFF7E0BA012818BF28
:1028F000704740F20C00C2F20000BDEEC00A8171C8
:1029000010EE101A418270472DE9F0478AB0002777
:1029100043F630040597C4F202042268884642F068
:10292000200121602168814601F02000059041F6D8
:1029300000460598C4F202064FF480654FF0010A84
:10294000A6F5006069460095CDE901A70397FEF75B
:10295000F9FA0597206840F080002060206800F0B8
:102960008000059005980597206840F08000206061
:10297000206800F08000059005980597206840F0D9
:1029800080002060206800F080000590059805A870
:1029900080E8A00405AF30463946FEF7D3FA4FF47D
:1029A0000060059030463946FEF7CCFA4FF480506F
:1029B000059030463946FEF7C5FA48464146FFF7CE
:1029C00049FF0AB0BDE8F08740F27011C2F2000181
:1029D0000860704780B54EF2180140F27012CEF2D6
:1029E0000001C2F2000251F804CC126800235043E7
:1029F0004FF47A7200FB02FE086800BF0A68824248
:102A0000FCD003449B1A824228BF6344734510469E
:102A100028BF80BDF2E7000080B54EF2180140F2F9
:102A20007012CEF20001C2F2000251F804CC12681A
:102A3000002302FB00FE08680A688242FCD00344BF
:102A40009B1A824228BF63447345104628BF80BD4D
:102A5000F2E7000041F20001C4F201010A685206E7
:102A6000FCD5C2B24A607047B0B540F2D825C2F278
:102A7000000500210128296021D141F60044C4F25B
:102A8000020420464FF48061FEF726FB18B1286847
:102A900040F00100286020464FF40061FEF71CFB67
:102AA00018B1286840F00200286020464FF4805199
:102AB000FEF712FB18B1286840F00400286028686F
:102AC000B0BD00002DE9F04186B0002643F630008D
:102AD0000196C4F20200016841F2000441F01001C5
:102AE00001600168C4F2020401F010010191019932
:102AF0000196016801AD41F01001016001684FF0DD
:102B0000010801F010010191019901960168022765
:102B100041F0100101600068294600F010000190AA
:102B200001980420CDE901062046CDF80C800497D9
:102B3000FEF708FA082001A981E84101204629464C
:102B40000497FEF7FFF9102001A981E84101204612
:102B500029460497FEF7F6F906B0BDE8F0810000BB
:102B6000B0B540F2DC250028C2F200051CBF0020F1
:102B70002870287841F20004C4F20204A8B120466B
:102B80000421FEF7A9FA01283DD120460821FEF7CD
:102B9000A3FA012837D120461021FEF79DFA01281B
:102BA0004FF0000008BF2870B0BD20460421FEF79A
:102BB00093FA50B120460821FEF78EFA28B120463C
:102BC0001021FEF789FA0028D9D10A20FFF702FF69
:102BD0000120287020460421FEF77EFAB0FA80F02A
:102BE000450920460821FEF777FA002820464FF0D5
:102BF000100108BF0225FEF76FFA0146284600299A
:102C000008BF0320B0BD0020B0BD0000F0B581B00A
:102C1000CF20ADF80200BDF8020040F60004ADF888
:102C20000200BDF80200C6F6004424F8020C0020A1
:102C3000ADF80200BDF80210C122ADF80210BDF8D7
:102C400002104FF0100C2180ADF80220BDF80210E8
:102C50004FF0010EADF80210BDF802102A272180B6
:102C60003021ADF80210BDF80230ADF80230BDF8E9
:102C700002302380ED23ADF80230BDF80230ADF80C
:102C80000230BDF8023024F8023C6423ADF8023073
:102C9000BDF80230ADF80230BDF8023023800323C6
:102CA000ADF80230BDF80230ADF80230BDF80230A8
:102CB00023801223ADF80230BDF80230ADF80230A7
:102CC000BDF8023023808123ADF80230BDF8023018
:102CD000ADF80230BDF802302380E823ADF80230B1
:102CE000BDF80230ADF80230BDF8023024F8023CE5
:102CF0008523ADF80230BDF80230ADF80230BDF8E2
:102D000002302380ADF802C0BDF80230ADF80230C9
:102D1000BDF8023023807A23ADF80230BDF80230CE
:102D2000ADF80230BDF802302380CB23ADF802307D
:102D3000BDF80230ADF80230BDF8023024F8023C94
:102D40003923ADF80230BDF80230ADF80230BDF8DD
:102D5000023023802C23ADF80230BDF80230ADF8EC
:102D60000230BDF802302380ADF80200BDF8023019
:102D7000ADF80230BDF8023023803423ADF80230C4
:102D8000BDF80230ADF80230BDF8023023800223D6
:102D9000ADF80230BDF80230ADF80230BDF80230B7
:102DA0002380F723ADF80230BDF80230ADF80230D1
:102DB000BDF8023024F8023C2023ADF80230BDF803
:102DC0000230ADF80230BDF802302380EA23ADF8BE
:102DD0000230BDF80230ADF80230BDF8023024F800
:102DE000023CADF80200BDF80230ADF80230BDF88B
:102DF00002302380ADF80200BDF80230ADF8023099
:102E0000BDF802302380C023ADF80230BDF8023097
:102E1000ADF80230BDF8023024F8023C1B23ADF8B7
:102E20000230BDF80230ADF80230BDF80230238028
:102E3000ADF80220BDF80220ADF80220BDF8022056
:102E400024F8022CADF802E0BDF80220ADF8022013
:102E5000BDF802202280C522ADF80220BDF8022074
:102E6000ADF80220BDF8022024F8022CADF80210C3
:102E7000BDF80220ADF80220BDF802202280ADF896
:102E80000210BDF802100A22ADF80210BDF80210BF
:102E90002180C721ADF80210BDF80210ADF8021074
:102EA000BDF8021024F8021CB721ADF80210BDF8DD
:102EB0000210ADF80210BDF8021021803621ADF8E5
:102EC0000210BDF80210ADF80210BDF8021024F88F
:102ED000021C4821ADF80210BDF80210ADF8021036
:102EE000BDF8021021803A21ADF80210BDF80210A1
:102EF000ADF80210BDF8021024F8021C5521ADF8FF
:102F00000210BDF80210ADF80210BDF802102180C9
:102F1000B121ADF80210BDF80210ADF80210BDF8F5
:102F2000021024F8021CADF80200BDF80210ADF842
:102F30000210BDF8021021801A21ADF80210BDF870
:102F40000210ADF80210BDF802102180B621ADF8D4
:102F50000210BDF80210ADF80210BDF8021024F8FE
:102F6000021CADF80220BDF80210ADF80210BDF849
:102F700002102180A221ADF80210BDF80210ADF8B8
:102F80000210BDF802102180F221ADF80210BDF848
:102F90000210ADF80210BDF8021024F8021CADF8C2
:102FA0000200BDF80210ADF80210BDF80210218039
:102FB0002621ADF80210BDF80210ADF80210BDF8E0
:102FC000021024F8021CADF802E0BDF80210ADF8C2
:102FD0000210BDF802102180E021ADF80210BDF80A
:102FE0000210ADF80210BDF8021024F8021C0F21E7
:102FF000ADF80210BDF80230ADF80230BDF8023075
:103000002380ADF80270BDF80230ADF80230BDF893
:10301000023023802823ADF80230BDF80230ADF82D
:103020000230BDF8023023800823ADF80230BDF82D
:103030000250ADF80250BDF8025025800E25ADF8C3
:103040000250BDF80250ADF80250BDF80250258084
:10305000ADF80230BDF802302B25ADF80230BDF8D6
:10306000023023805423ADF80230BDF80230ADF8B1
:103070000230BDF802302380A923ADF80230BDF83C
:103080000230ADF80230BDF8023023804323ADF8A2
:103090000230BDF80230ADF80230BDF802302380B6
:1030A000ADF80220BDF80220ADF80220BDF80220E4
:1030B0002280ADF80210BDF80220ADF80220BDF864
:1030C00002202280ADF80200BDF80220ADF80220F7
:1030D000BDF802202280ADF80200BDF80220ADF854
:1030E0000220BDF802202280ADF80200BDF80220C7
:1030F000ADF80220BDF802202280ADF80200BDF834
:103100000220ADF80220BDF802202280E122ADF8B5
:103110000220BDF80220ADF80220BDF8022024F8FC
:10312000022CADF80200BDF80220ADF80220BDF877
:10313000022022801522ADF80220BDF80220ADF851
:103140000220BDF8022022801722ADF80220BDF82F
:103150000220ADF80220BDF8022022800722ADF83F
:103160000220BDF80220ADF80220BDF80220228026
:103170001122ADF80220BDF80230ADF80230BDF8E2
:10318000023023800623ADF80230BDF80230ADF8DE
:103190000230BDF802302380ADF80250BDF8023095
:1031A000ADF80230BDF8023023805623ADF802306E
:1031B000BDF80230ADF80230BDF8023023803C2368
:1031C000ADF80230BDF80230ADF80230BDF8023083
:1031D00023800523ADF80230BDF80230ADF802308F
:1031E000BDF802302380ADF802C0BDF80230ADF862
:1031F0000230BDF802302380ADF80210BDF8023075
:10320000ADF80230BDF8023023803F23ADF8023024
:10321000BDF80260ADF80260BDF802602680ADF82E
:103220000230BDF80260ADF80260BDF80260268091
:10323000ADF80210BDF80210ADF80210BDF8021092
:103240002180ADF80250BDF80210ADF80210BDF8B3
:10325000021024F8021CADF80200BDF80210ADF80F
:103260000210BDF802102180ADF80200BDF8021076
:10327000ADF80210BDF802102180ADF802E0BDF8F3
:103280000210ADF80210BDF802102180ADF8023036
:10329000BDF80210ADF80210BDF802102180ADF8A3
:1032A0000270BDF80210ADF80210BDF8021024F84B
:1032B000021CADF80200BDF80210ADF80210BDF816
:1032C00002102180ADF80200BDF80210ADF8021026
:1032D000BDF802102180ADF80200BDF80200ADF883
:1032E0000200BDF802002080EF20ADF80200BDF81A
:1032F0000200ADF80200BDF802002080ADF8022007
:10330000BDF80200ADF80200BDF8020024F8020C7E
:103310007820FFF75FFB2920ADF80200BDF802001E
:10332000ADF80200BDF8020024F8020C01B0F0BDB7
:103330002DE9F04F81B0FF23ADF80230BDF8020057
:1033400040F60004ADF80200BDF80200C6F60044E5
:1033500024F8020CADF80230BDF802004FF0060E62
:10336000ADF80200BDF802004FF00F0B208098204E
:10337000ADF80200BDF802004FF00B0AADF80200F4
:10338000BDF802004FF010092080ADF802E0BDF852
:1033900002004025ADF80200BDF802004FF00A0C13
:1033A0002080BC20ADF80200BDF80200ADF802009C
:1033B000BDF8020024F8020C0120ADF80200BDF8AF
:1033C0000210ADF80210BDF802102180ADF802B075
:1033D000BDF80210ADF80210BDF802102180612185
:1033E000ADF80210BDF80210ADF80210BDF80210E1
:1033F0002180ADF80230BDF80210ADF80210BDF822
:1034000002102180ADF80200BDF80210ADF80210E4
:10341000BDF802102180ADF80200BDF80210ADF831
:103420000210BDF802102180ADF802A0BDF8021014
:10343000ADF80210BDF802102180ADF80290BDF881
:103440000210ADF80210BDF8021021803721ADF84E
:103450000210BDF80210ADF80210BDF80210218074
:103460006321ADF80210BDF80210ADF80210BDF8EE
:1034700002102180ADF80230BDF80210ADF8021044
:10348000BDF802102180ADF80230BDF80210ADF891
:103490000210BDF802102180ADF80200BDF8021044
:1034A000ADF80210BDF802102180ADF80200BDF8A1
:1034B0000210ADF80210BDF8021021800021ADF815
:1034C0000210BDF80220ADF80220BDF802202280D3
:1034D000ADF80210BDF80220ADF80220BDF80220C0
:1034E0002280ADF80230BDF80220ADF80220BDF810
:1034F000022022805222ADF80220BDF80220ADF851
:103500000220BDF802202280ADF80200BDF80220A2
:10351000ADF80220BDF802202280ADF80210BDF8FF
:103520000220ADF80220BDF802202280ADF8025042
:10353000BDF80220ADF80220BDF802202280BD2295
:10354000ADF80220BDF80220ADF80220BDF802203F
:1035500024F8022CADF80200BDF80220ADF80220DC
:10356000BDF8022022802322ADF80220BDF80230EF
:10357000ADF80230BDF8023023804523ADF80230AB
:10358000BDF80260ADF80260BDF8026026806726D3
:10359000ADF80260BDF80270ADF80270BDF80270BF
:1035A0002780ADF80200BDF80270ADF80270BDF8DA
:1035B00002702780ADF80220BDF80220ADF802208D
:1035C000BDF802202280ADF80230BDF80220ADF82F
:1035D0000220BDF802202280ADF80260BDF8022072
:1035E0001326ADF80220BDF802202280BE22ADF8DD
:1035F0000220BDF80220ADF80220BDF8022024F818
:10360000022CADF80210BDF80220ADF80220BDF882
:1036100002202280ADF80200BDF80220ADF80220A1
:10362000BDF802202280AB22ADF80220BDF80220B6
:10363000ADF80220BDF8022022806022ADF8022001
:10364000BDF80220ADF80220BDF80220228022221F
:10365000ADF80220BDF80230ADF80230BDF80230FE
:103660002380ADF80220BDF80230ADF80230BDF87D
:1036700002302380ADF80220BDF80230ADF80230F0
:10368000BDF802302380ADF80220BDF80230ADF85D
:103690000230BDF802302380ADF80220BDF80220D0
:1036A0002023ADF80220BDF802202280C722ADF809
:1036B0000220BDF80220ADF80220BDF8022024F857
:1036C000022C3622ADF80220BDF80220ADF802200F
:1036D000BDF802202280ED22ADF80220BDF80220C4
:1036E000ADF80220BDF8022024F8022C7F22ADF8AC
:1036F0000220BDF80220ADF80220BDF80220228091
:10370000ADF802B0BDF80220ADF80220BDF80220ED
:103710002280C022ADF80220BDF80220ADF80220C0
:10372000BDF8022024F8022CADF802B0BDF802204A
:10373000ADF80220BDF802202280ADF802A0BDF84D
:103740000220ADF80220BDF802202280ADF802C0B0
:10375000BDF80220ADF80220BDF802202280FC2234
:10376000ADF80220BDF80220ADF80220BDF802201D
:1037700024F8022C0822ADF80220BDF80220ADF892
:103780000220BDF802202280DF22ADF80220BDF821
:103790000220ADF80220BDF8022024F8022CADF87A
:1037A0000210BDF80220ADF80220BDF802202280F0
:1037B000ADF80210BDF80220ADF80220BDF80220DD
:1037C0002280ADF80210BDF80220ADF80220BDF84D
:1037D00002202280ADF80210BDF80220ADF80220D0
:1037E000BDF802202280ADF80210BDF80220ADF82D
:1037F0000220BDF802202280ADF80230BDF8022080
:10380000ADF80220BDF802202280F322ADF802209C
:10381000BDF80220ADF80220BDF8022024F8022CE9
:103820007422ADF80220BDF80220ADF80220BDF8E8
:1038300002202280B422ADF80220BDF80220ADF8AB
:103840000220BDF8022024F8022CADF80210BDF8C9
:103850000220ADF80220BDF802202280ADF802104F
:10386000BDF80220ADF80220BDF802202280ADF89C
:103870000210BDF80220ADF80220BDF8022022801F
:10388000F722ADF80220BDF80220ADF80220BDF805
:10389000022024F8022C8222ADF80220BDF802207A
:1038A000ADF80220BDF802202280B122ADF802203E
:1038B000BDF80220ADF80220BDF8022024F8022C49
:1038C000ADF80210BDF80220ADF80220BDF80220CC
:1038D0002280ADF80260BDF80220ADF80220BDF8EC
:1038E00002202280ADF80260BDF80220ADF802206F
:1038F000BDF802202280F222ADF80220BDF802209D
:10390000ADF80220BDF8022024F8022C8022ADF888
:103910000220BDF80220ADF80220BDF8022022806E
:103920000422ADF80220BDF80220ADF80220BDF857
:1039300002202280ADF80250BDF80220ADF802202E
:10394000BDF8022022802822ADF80220BDF8022016
:10395000ADF80220BDF802202280C122ADF802207D
:10396000BDF80220ADF80220BDF8022024F8022C98
:103970001722ADF80220BDF80220ADF80220BDF8F4
:10398000022022808822ADF80220BDF80250ADF856
:103990000250BDF802502580ADF80220BDF802208B
:1039A0000E25ADF80220BDF802202280ADF80230CD
:1039B000BDF80220ADF80220BDF802202280E022EE
:1039C000ADF80220BDF80220ADF80220BDF80220BB
:1039D00024F8022CADF80210BDF80220ADF8022048
:1039E000BDF802202280ADF802C0BDF80220ADF87B
:1039F0000220BDF8022022801222ADF80220BDF87C
:103A00000220ADF80220BDF802202280ADF802901D
:103A1000BDF80220ADF80220BDF802202280ADF8EA
:103A20000250BDF80220ADF80220BDF8022022802D
:103A3000ADF80230BDF80220ADF80220BDF802203A
:103A40002280CC22ADF80220BDF80220ADF8022081
:103A5000BDF8022022800722ADF80220BDF8022026
:103A6000ADF80220BDF802202280ADF802E0BDF8DA
:103A70000220ADF80220BDF802202280ADF802A09D
:103A8000BDF80220ADF80220BDF802202280ADF87A
:103A90000250BDF80220ADF80220BDF802202280BD
:103AA000ADF802B0BDF80220ADF80220BDF802204A
:103AB00022800D22ADF80220BDF80230ADF80230B0
:103AC000BDF8023023801523ADF80230BDF8028026
:103AD000ADF80280BDF802702780ADF80290BDF805
:103AE0000270ADF80270BDF802702780ADF80210C8
:103AF000BDF80270ADF80270BDF802702780E127B2
:103B0000ADF80270BDF80270ADF80270BDF8027039
:103B100024F8027CADF80210BDF80270ADF8027016
:103B2000BDF802702780ADF802A0BDF80270ADF8B4
:103B30000270BDF802702780ADF80260BDF8026027
:103B4000ADF80260BDF802602680ADF80220BDF835
:103B50000220ADF80220BDF802202280ADF802500C
:103B6000BDF80220ADF80220BDF8022022801B2201
:103B7000ADF80220BDF80220ADF80220BDF8022009
:103B800022807122ADF80220BDF80220ADF802209B
:103B9000BDF802202280ADF802E0BDF80220ADF8A9
:103BA0000220BDF802202280ADF802E0BDF802201C
:103BB000ADF80220BDF802202280ADF802C0BDF8A9
:103BC0000220ADF80220BDF802202280ADF802B03C
:103BD000BDF80220ADF80220BDF802202280ADF829
:103BE0000250BDF80220ADF80220BDF8022022806C
:103BF000ADF802B0BDF80220ADF80220BDF80220F9
:103C00002280ADF80230BDF80220ADF80220BDF8E8
:103C1000022022800C22ADF80220BDF80220ADF86F
:103C20000220BDF802202280ADF80210BDF802206B
:103C3000ADF80220BDF8022022802A22ADF8022031
:103C4000BDF80220ADF80220BDF8022024F8022CB5
:103C5000ADF80210BDF80220ADF80220BDF8022038
:103C60002280ADF80210BDF80220ADF80220BDF8A8
:103C700002202280ADF80200BDF80200ADF802007B
:103C8000BDF802002080DF20ADF80200BDF8020080
:103C9000ADF80200BDF8020020802B20ADF8020034
:103CA000BDF80200ADF80200BDF8020024F8020CD5
:103CB000ADF80210BDF80200ADF80200BDF8020038
:103CC0002080ADF80210BDF80200ADF80200BDF88A
:103CD000020020800320ADF80200BDF80200ADF81C
:103CE0000200BDF8020020801F20ADF80200BDF8E0
:103CF0000200ADF80200BDF8020020803A20ADF8C5
:103D00000200BDF80200ADF80200BDF8020024F880
:103D1000020C5520ADF80200BDF80200ADF802001B
:103D2000BDF8020020803620ADF80200BDF8020088
:103D3000ADF80200BDF8020024F8020CADF8021044
:103D4000BDF80200ADF80200BDF80200208011208D
:103D5000ADF80200BDF80200ADF80200BDF80200A7
:103D600024F8020C7820FEF735FE2920ADF8020079
:103D7000BDF80200ADF80200BDF8020024F8020C04
:103D80001420FEF727FE2C20ADF80200BDF802003B
:103D9000ADF80200BDF8020024F8020C01B0BDE845
:103DA000F08F00002DE9F04F81B0ED20ADF802005A
:103DB000BDF8020040F60004ADF80200BDF80200B4
:103DC000C6F6004424F8020C0120ADF80200BDF84C
:103DD00002004FF02109ADF80200BDF802000122F7
:103DE0002080FE20ADF80200BDF802000025ADF8ED
:103DF0000200BDF802008B262080EE20ADF8020004
:103E0000BDF802000223ADF80200BDF802004FF039
:103E1000200A24F8020CDE20ADF80200BDF80200F2
:103E20004FF03C08ADF80200BDF802004FF0360E2E
:103E30002080ADF80290BDF80210C420ADF8021049
:103E4000BDF802104FF0320B2180F121ADF80210C5
:103E5000BDF802104FF02C0CADF80210BDF80210A6
:103E600024F8021CADF80220BDF80210ADF80210D3
:103E7000BDF802102180DF21ADF80210BDF802105C
:103E8000ADF80210BDF8021024F8021C1021ADF8A4
:103E90000210BDF80210ADF80210BDF8021021802A
:103EA000ADF80200BDF80210C620ADF80210BDF852
:103EB000021024F8021C8F21ADF80210BDF8021088
:103EC000ADF80210BDF802102180ADF80200BDF877
:103ED0000210E220ADF80210BDF8021024F8021C16
:103EE000ADF80250BDF80210ADF80210BDF8021096
:103EF0002180ADF80200BDF80210ADF80210BDF847
:103F000002102180ADF80200BDF80210ADF80210D9
:103F1000BDF802102180ADF80200BDF802105D204E
:103F2000ADF80210BDF802102180BF21ADF80210DB
:103F3000BDF80210ADF80210BDF8021024F8021C02
:103F4000AA21ADF80210BDF80210ADF80210BDF8BC
:103F500002102180B021ADF80210BDF80210ADF8BA
:103F60000210BDF8021024F8021C0D21ADF8021059
:103F7000BDF80220ADF80220BDF802202280ADF885
:103F80000250BDF80220ADF80220BDF802202280C8
:103F9000ADF80210BDF80210ADF80210BDF8021025
:103FA0002180ADF80250BDF80210ADF80210BDF846
:103FB000021021801121ADF80210BDF80210ADF8F9
:103FC0000210BDF802102180ADF80250BDF80210B9
:103FD000ADF80210BDF8021021801921ADF80210D1
:103FE000BDF80210ADF80210BDF802102180ADF846
:103FF0000250BDF80210ADF80210BDF80210218089
:10400000ADF80290BDF80210ADF80210BDF8021034
:104010002180ADF80250BDF80210ADF80210BDF8D5
:10402000021021802D21ADF80210BDF80210ADF86C
:104030000210BDF802102180ADF80250BDF8021048
:10404000ADF80210BDF8021021803D21ADF802103C
:10405000BDF80210ADF80210BDF802102180ADF8D5
:104060000250BDF80210ADF80210BDF80210218018
:10407000ADF80200BDF80210ADF80210BDF8021054
:104080002180ADF80250BDF80210ADF80210BDF865
:1040900002102180ADF80200BDF802108B20ADF8AF
:1040A0000210BDF802102180ADF80250BDF80210D8
:1040B000ADF80210BDF802102180B121ADF8021058
:1040C000BDF80210ADF80210BDF8021024F8021C71
:1040D0008021ADF80210BDF80210ADF80210BDF855
:1040E00002102180ADF80250BDF80210ADF80210A8
:1040F000BDF802102180ADF80200BDF802100220C8
:10410000ADF80210BDF802102180ADF80250BDF8E4
:104110000210ADF80210BDF8021021809621ADF812
:104120000210BDF80220ADF80220BDF80220228066
:10413000ADF80250BDF80220ADF80220BDF8022013
:104140002280B222ADF80220BDF80220ADF8022094
:10415000BDF8022024F8022CADF80250BDF8022070
:10416000ADF80220BDF802202280ADF80250BDF863
:104170000220ADF80220BDF802202280ADF8020036
:10418000BDF80220B320ADF80220BDF80220228045
:10419000ADF80250BDF80220ADF80220BDF80220B3
:1041A00022800322ADF80220BDF80270ADF8027043
:1041B000BDF802702780ADF80250BDF80270ADF86E
:1041C0000270BDF802702780ADF80200BDF80270E1
:1041D000B720ADF80270BDF8027024F8027CADF88B
:1041E0000250BDF80270ADF80270BDF80270278071
:1041F000ADF80250BDF80270ADF80270BDF8027063
:104200002780ADF80250BDF80270ADF80270BDF81D
:1042100002702780ADF80250BDF80270ADF8027050
:10422000BDF802702780ADF80250BDF80270ADF8FD
:104230000270BDF802702780ADF80250BDF8027020
:10424000ADF80270BDF802702780ADF80250BDF8DD
:104250000270ADF80270BDF802702780ADF8025010
:10426000BDF80270ADF80270BDF802702780ADF89D
:104270000250BDF80270ADF80270BDF802702780E0
:10428000ADF80250BDF80270ADF80270BDF80270D2
:104290002780ADF80250BDF80270ADF80270BDF88D
:1042A00002702780ADF80250BDF80270ADF80270C0
:1042B000BDF802702780ADF80250BDF80270ADF86D
:1042C0000270BDF802702780ADF80250BDF8027090
:1042D000ADF80270BDF802702780ADF80250BDF84D
:1042E0000270ADF80270BDF802702780ADF8025080
:1042F000BDF80270ADF80270BDF802702780ADF80D
:104300000250BDF80270ADF80270BDF8027027804F
:10431000ADF80250BDF80270ADF80270BDF8027041
:104320002780ADF80250BDF80270ADF80270BDF8FC
:1043300002702780ADF80250BDF80270ADF802702F
:10434000BDF802702780ADF80250BDF80270ADF8DC
:104350000270BDF802702780ADF80250BDF80270FF
:10436000ADF80270BDF802702780ADF80250BDF8BC
:104370000270ADF80270BDF802702780ADF80250EF
:10438000BDF80270ADF80270BDF802702780B42746
:10439000ADF80270BDF80270ADF80270BDF80270A1
:1043A00024F8027CADF80260BDF80270ADF802702E
:1043B000BDF802702780ADF80250BDF80270ADF86C
:1043C0000270BDF802702780ADF80210BDF802102F
:1043D0000427ADF80210BDF802102180ADF802509C
:1043E000BDF80210ADF80210BDF802102180A12125
:1043F000ADF80210BDF80210ADF80210BDF80210C1
:104400002180ADF80250BDF80210ADF80210BDF8E1
:1044100002102180B521ADF80210BDF80210ADF8F0
:104420000210BDF8021024F8021CADF80230BDF8ED
:104430000210FF23ADF80210BDF802102180ADF884
:104440000250BDF80210ADF80210BDF80210218034
:10445000ADF80220BDF80210ADF80210BDF8021050
:104460002180ADF80250BDF80210ADF80210BDF881
:1044700002102180ADF80270BDF80210ADF80210F4
:10448000BDF802102180ADF80250BDF80210ADF861
:104490000210BDF802102180B621ADF80210BDF85F
:1044A0000210ADF80210BDF8021024F8021CADF89D
:1044B0000250BDF80210ADF80210BDF802102180C4
:1044C000ADF80250BDF80210ADF80210BDF80210B0
:1044D0002180ADF80200BDF802106420ADF8021092
:1044E000BDF8021024F8021CADF80250BDF802100D
:1044F000ADF80210BDF802102180ADF80250BDF8F1
:104500000210ADF80210BDF8021021803F21ADF875
:104510000210BDF80210ADF80210BDF802102180A3
:10452000ADF80250BDF80210ADF80210BDF802104F
:1045300021805E21ADF80210BDF80210ADF8021026
:10454000BDF802102180ADF80250BDF80210ADF8A0
:104550000210BDF802102180ADF80200BDF8021073
:10456000DC20ADF80210BDF802102180ADF8025039
:10457000BDF80210ADF80210BDF8021021808C21A8
:10458000ADF80210BDF80210ADF80210BDF802102F
:104590002180ADF80250BDF80210ADF80210BDF850
:1045A00002102180AC21ADF80210BDF80210ADF868
:1045B0000210BDF802102180ADF80250BDF80210C3
:1045C000ADF80210BDF802102180ADF80200BDF870
:1045D0000210ADF80210BDF802102180ADF80250B3
:1045E000BDF80210ADF80210BDF802102180702154
:1045F000ADF80210BDF80210ADF80210BDF80210BF
:104600002180ADF80250BDF80210ADF80210BDF8DF
:10461000021021809021ADF80210BDF80210ADF813
:104620000210BDF802102180ADF80250BDF8021052
:10463000ADF80210BDF802102180EB21ADF8021098
:10464000BDF80210ADF80210BDF802102180ADF8DF
:104650000250BDF80210ADF80210BDF80210218022
:10466000ADF80200BDF80210C220ADF80210BDF88E
:1046700002102180ADF80250BDF80210ADF8021012
:10468000BDF802102180B821ADF80210BDF802106B
:10469000ADF80210BDF8021024F8021CADF802506B
:1046A000BDF80210ADF80210BDF802102180ADF87F
:1046B0000250BDF80210ADF80210BDF802102180C2
:1046C000ADF80250BDF80210ADF80210BDF80210AE
:1046D0002180ADF80250BDF80210ADF80210BDF80F
:1046E00002102180ADF80250BDF80210ADF80210A2
:1046F000BDF802102180ADF80250BDF80210ADF8EF
:104700000210BDF802102180ADF80250BDF8021071
:10471000ADF80210BDF802102180ADF80250BDF8CE
:104720000210ADF80210BDF802102180BA21ADF8D8
:104730000210BDF80210ADF80210BDF8021024F806
:10474000021C2421ADF80210BDF80220ADF80220B1
:10475000BDF802202280ADF80250BDF80220ADF86D
:104760000220BDF802202280ADF80250BDF80220E0
:10477000ADF80220BDF802202280ADF80250BDF84D
:104780000220ADF80220BDF802202280C122ADF83F
:104790000220BDF80220ADF80220BDF8022024F866
:1047A000022CADF802A0BDF802602322ADF8026031
:1047B000BDF802602680ADF80250BDF80260ADF889
:1047C0000260BDF8026026805426ADF80260BDF894
:1047D0000260ADF80260BDF802602680ADF80250BC
:1047E000BDF80260ADF80260BDF802602680ADF849
:1047F0000230BDF802603A23ADF80260BDF80260F5
:104800002680ADF80250BDF80260ADF80260BDF838
:1048100002602680ADF80200BDF802600A20ADF803
:104820000260BDF8026024F8026CADF80200BDF829
:1048300002603C20ADF80260BDF802602680ADF851
:104840000250BDF80260ADF80260BDF8026026803B
:10485000ADF80270BDF80270ADF80270BDF80270DC
:104860002780ADF80250BDF80270ADF80270BDF8B7
:1048700002702780C327ADF80270BDF80270ADF852
:104880000270BDF8027024F8027CADF80200BDF899
:104890000270ADF80270BDF802702780ADF80250CA
:1048A000BDF80270ADF80270BDF802702780ADF857
:1048B0000230BDF802702C23ADF80270BDF8027012
:1048C0002780ADF80250BDF80270ADF80270BDF857
:1048D000027027803927ADF80270BDF80270ADF87C
:1048E0000270BDF802702780ADF80250BDF802706A
:1048F000ADF80270BDF8027027803727ADF802705E
:10490000BDF80270ADF80270BDF802702780ADF8F6
:104910000250BDF80270ADF80270BDF80270278039
:10492000ADF80200BDF802703620ADF80270BDF897
:1049300002702780ADF80250BDF80270ADF8027029
:10494000BDF802702780ADF80200BDF80270322079
:10495000ADF80270BDF802702780ADF80250BDF8C6
:104960000270ADF80270BDF802702780ADF8020049
:10497000BDF802702920ADF80270BDF802702780E2
:10498000ADF80250BDF80270ADF80270BDF80270CB
:1049900027802F27ADF80270BDF80260ADF80260E5
:1049A000BDF802602680ADF80250BDF80260ADF897
:1049B0000260BDF802602680ADF80230BDF80260EA
:1049C0002923ADF80260BDF802602680ADF80250E0
:1049D000BDF80260ADF80260BDF802602680ADF857
:1049E0000230BDF80260ADF80260BDF802602680BA
:1049F000ADF80250BDF80260ADF80260BDF802608B
:104A000026802626ADF80260BDF80230ADF80230EF
:104A1000BDF802302380ADF80250BDF80230ADF889
:104A20000230BDF802302380ADF80210BDF802302C
:104A3000ADF80230BDF802302380ADF80250BDF869
:104A40000230ADF80230BDF802302380ADF802101C
:104A5000BDF80230ADF80230BDF802302380ADF869
:104A60000250BDF80230ADF80230BDF802302380AC
:104A70002323ADF80230BDF80230ADF80230BDF8A6
:104A800002302380ADF80250BDF80230ADF802309C
:104A9000BDF802302380ADF80280BDF802304FF03F
:104AA0007A08ADF80230BDF802302380ADF802502C
:104AB000BDF80230ADF80230BDF802302380ADF809
:104AC00002E0BDF802304FF08B0EADF80230BDF8B9
:104AD00002302380ADF80250BDF80230ADF802304C
:104AE000BDF802302380ADF802B0BDF80230ADF859
:104AF0000230BDF802302380ADF80250BDF802301C
:104B0000ADF80230BDF802302380ADF80270BDF878
:104B10000230ADF80230BDF802302380ADF802500B
:104B2000BDF80230ADF80230BDF802302380ADF898
:104B300002C0BDF802304FF0C40CADF80230BDF831
:104B400002302380ADF80250BDF80230ADF80230DB
:104B5000BDF802302380ADF80200BDF80230C42059
:104B6000ADF80230BDF802302380ADF80250BDF838
:104B70000230ADF80230BDF802302380ADF802609B
:104B8000BDF802301626ADF80230BDF802302380A1
:104B9000ADF80250BDF80230ADF80230BDF8023079
:104BA0002380ADF80210BDF80230ADF80230BDF838
:104BB00002302380ADF80250BDF80230ADF802306B
:104BC000BDF802302380ADF80210BDF80210ADF838
:104BD0000210BDF802102180ADF80250BDF802109D
:104BE000ADF80210BDF802102180ADF80220BDF82A
:104BF0000210ADF80210BDF802102180ADF802508D
:104C0000BDF80210ADF80210BDF802102180ADF819
:104C10000200BDF802106220ADF80210BDF80210CB
:104C200024F8021CADF80200BDF802100520ADF812
:104C30000210BDF802102180ADF80250BDF802103C
:104C4000ADF80210BDF802102180ADF80200BDF8E9
:104C500002108420ADF80210BDF802102180ADF8DA
:104C60000250BDF80210ADF80210BDF8021021800C
:104C7000ADF80200BDF80210F020ADF80210BDF84A
:104C800002102180ADF80250BDF80210ADF80210FC
:104C9000BDF802102180ADF80200BDF802105020CE
:104CA000ADF80210BDF802102180ADF80250BDF839
:104CB0000210ADF80210BDF8021021801821ADF8E5
:104CC0000210BDF80230ADF80230BDF8023023808A
:104CD000ADF80250BDF80230ADF80230BDF8023038
:104CE0002380A423ADF80230BDF80230ADF80230C5
:104CF000BDF802302380ADF80250BDF80230ADF8A7
:104D00000230BDF802302380ADF80210BDF8021069
:104D1000ADF80210BDF802102180ADF80250BDF8C8
:104D20000210ADF80210BDF802102180ADF80200AB
:104D3000BDF80210F320ADF80210BDF8021021807A
:104D4000ADF80250BDF80210ADF80210BDF8021027
:104D500021800C21ADF80210BDF80210ADF8021050
:104D6000BDF802102180ADF80250BDF80210ADF878
:104D70000210BDF8021021801721ADF80210BDF815
:104D80000230ADF80230BDF802302380ADF8025099
:104D9000BDF80230ADF80230BDF802302380952313
:104DA000ADF80230BDF80230ADF80230BDF8023087
:104DB0002380ADF80250BDF80230ADF80230BDF8E6
:104DC00002302380ADF80200BDF80230E620ADF8D5
:104DD0000230BDF802302380ADF80250BDF8023039
:104DE000ADF80230BDF802302380ADF80200BDF806
:104DF00002304420ADF80230BDF802302380ADF817
:104E00000250BDF80230ADF80230BDF80230238008
:104E1000C523ADF80230BDF80230ADF80230BDF860
:104E2000023024F8023CADF802B0BDF802304FF079
:104E3000520BADF80230BDF802302380ADF80250BD
:104E4000BDF80230ADF80230BDF802302380ADF875
:104E50000200BDF802307620ADF80230BDF8023015
:104E60002380ADF80250BDF80230ADF80230BDF835
:104E7000023023806523ADF80230BDF80230ADF872
:104E80000230BDF802302380ADF80250BDF8023088
:104E9000ADF80230BDF802302380ADF80200BDF855
:104EA00002308820ADF80230BDF802302380ADF822
:104EB0000250BDF80230ADF80230BDF80230238058
:104EC000ADF80200BDF80230C620ADF80230BDF8E2
:104ED00002302380ADF80250BDF80230ADF8023048
:104EE000BDF802302380ADF80200BDF80230012089
:104EF000ADF80230BDF8023024F8023CADF802A053
:104F0000BDF80220A823ADF80220BDF802202280BF
:104F1000ADF80250BDF80220ADF80220BDF8022025
:104F20002280ADF80210BDF80210B922ADF80210CF
:104F3000BDF802102180ADF80250BDF80210ADF8A6
:104F40000210BDF802102180ADF80200BDF8021079
:104F5000C720ADF80210BDF802102180ADF8025054
:104F6000BDF80210ADF80210BDF802102180ADF8B6
:104F70000200BDF80210E020ADF80210BDF80210EA
:104F800024F8021CADF80250BDF80210ADF8021072
:104F9000BDF802102180ADF80250BDF80210ADF846
:104FA0000210BDF802102180ADF80250BDF80210C9
:104FB000ADF80210BDF802102180ADF80250BDF826
:104FC0000210ADF80210BDF802102180C821ADF822
:104FD0000210BDF80210ADF80210BDF8021024F85E
:104FE000021CADF80250BDF80210ADF80210BDF879
:104FF00002102180ADF80250BDF80210ADF8021089
:10500000BDF802102180ADF80250BDF80210ADF8D5
:105010000210BDF802102180ADF80250BDF8021058
:10502000ADF80210BDF802102180C921ADF80210C0
:10503000BDF80210ADF80210BDF8021024F8021CF1
:10504000ADF80250BDF80210ADF80210BDF8021024
:105050002180ADF80250BDF80210ADF80210BDF885
:1050600002102180ADF80250BDF80210ADF8021018
:10507000BDF802102180ADF80250BDF80210ADF865
:105080000210BDF802102180ADF80250BDF80210E8
:10509000ADF80210BDF802102180ADF80250BDF845
:1050A0000210ADF80210BDF802102180ADF80250D8
:1050B000BDF80210ADF80210BDF802102180ADF865
:1050C0000250BDF80210ADF80210BDF802102180A8
:1050D000ADF80250BDF80210ADF80210BDF8021094
:1050E0002180ADF80250BDF80210ADF80210BDF8F5
:1050F00002102180ADF80250BDF80210ADF8021088
:10510000BDF802102180ADF80250BDF80210ADF8D4
:105110000210BDF802102180ADF80250BDF8021057
:10512000ADF80210BDF802102180ADF80250BDF8B4
:105130000210ADF80210BDF802102180ADF8025047
:10514000BDF80210ADF80210BDF802102180ADF8D4
:105150000250BDF80210ADF80210BDF80210218017
:10516000ADF80200BDF802101C20ADF80210BDF829
:10517000021024F8021CADF80260BDF80210ADF870
:105180000210BDF802102180ADF80250BDF80210E7
:10519000ADF80210BDF802102180ADF80200BDF894
:1051A0000210ADF80210BDF802102180ADF80250D7
:1051B000BDF80210ADF80210BDF802102180ADF864
:1051C0000290BDF802004FF06409ADF80200BDF88E
:1051D0000200CA212080ADF80250BDF80200ADF8EF
:1051E0000200BDF8020020803620ADF80200BDF8B4
:1051F0000200ADF80200BDF802002080ADF80250B8
:10520000BDF80200ADF80200BDF802002080462083
:10521000ADF80200BDF80200ADF80200BDF80200D2
:105220002080ADF80250BDF80200ADF80200BDF8D4
:1052300002002080ADF802B0BDF80200ADF8020017
:10524000BDF802002080ADF80250BDF80200ADF8B4
:105250000200BDF802002080ADF80290BDF8020007
:10526000ADF80200BDF802002080ADF80250BDF894
:105270000200ADF80200BDF802002080ADF8028007
:10528000BDF80200ADF80200BDF802002080ADF8C4
:105290000250BDF80200ADF80200BDF80200208007
:1052A000ADF802E0BDF80200ADF80200BDF8020062
:1052B0002080ADF80250BDF80200ADF80200BDF844
:1052C000020020809920ADF80200BDF80200ADF880
:1052D0000200BDF802002080ADF80250BDF80200C7
:1052E000ADF80200BDF802002080ADF80230BDF834
:1052F0000200ADF80200BDF802002080ADF80250B7
:10530000BDF80200ADF80200BDF802002080ADF843
:105310000220BDF80200ADF80200BDF802002080B6
:10532000ADF80250BDF80200ADF80200BDF8020071
:105330002080ADF802C0BDF80200ADF80200BDF853
:1053400002002080ADF80250BDF80200ADF8020066
:10535000BDF802002080ADF80210BDF80200ADF8E3
:105360000200BDF802002080ADF80250BDF8020036
:10537000ADF80200BDF802002080D220ADF8020096
:10538000BDF802A0ADF802A0BDF802704FF0F30A1C
:105390002780ADF80250BDF80270ADF80270BDF87C
:1053A00002702780D927ADF80270BDF80270ADF801
:1053B0000270BDF802702780ADF80250BDF802708F
:1053C000ADF80270BDF802702780E027ADF80270DA
:1053D000BDF80270ADF80270BDF802702780ADF81C
:1053E0000250BDF80270ADF80270BDF8027027805F
:1053F000ADF802A0BDF80270ADF80270BDF8027001
:105400002780ADF80250BDF80270ADF80270BDF80B
:1054100002702780E127ADF80270BDF80270ADF888
:105420000270BDF8027024F8027CADF80260BDF88D
:105430000260ADF80260BDF802602680ADF802504F
:10544000BDF80260ADF80260BDF8026026801C263F
:10545000ADF80260BDF80260ADF80260BDF8026010
:105460002680ADF80250BDF80260ADF80260BDF8CC
:10547000026026802226ADF80260BDF80260ADF819
:105480000260BDF802602680ADF80250BDF80260EF
:10549000ADF80260BDF8026026803626ADF80260E5
:1054A000BDF80260ADF80260BDF802602680ADF87C
:1054B0000250BDF80260ADF80260BDF802602680BF
:1054C0004526ADF80260BDF80260ADF80260BDF897
:1054D00002602680ADF80250BDF80260ADF80260AF
:1054E000BDF802602680ADF802B0BDF80270D1268A
:1054F000ADF80270BDF802704FF0DD0B2780ADF8FB
:105500000250BDF80270ADF80270BDF8027027803D
:10551000ADF80290BDF802704FF09709ADF8027037
:10552000BDF802702780ADF80250BDF80270ADF8EA
:105530000270BDF802702780ADF80280BDF80270DD
:105540004FF00508ADF80270BDF802702780ADF885
:105550000250BDF80270ADF80270BDF802702780ED
:10556000ADF802E0BDF802704FF0880EADF80270A1
:10557000BDF802702780ADF80250BDF80270ADF89A
:105580000270BDF8027027809927ADF80270BDF84F
:105590000270ADF80270BDF802702780ADF80250BD
:1055A000BDF80270ADF80270BDF802702780ADF84A
:1055B0000230BDF80230C227ADF80230BDF802302B
:1055C0002380ADF80250BDF80230ADF80230BDF8CE
:1055D00002302380ADF80220BDF80220A623ADF8EA
:1055E0000220BDF802202280ADF80250BDF8022052
:1055F000ADF80220BDF802202280ADF802C0BDF84F
:1056000002204FF0F30CADF80220BDF802202280FA
:10561000ADF80250BDF80220ADF80220BDF802201E
:105620002280ADF80210BDF80210C722ADF80210BA
:10563000BDF802102180ADF80250BDF80210ADF89F
:105640000210BDF802102180ADF80200BDF8020082
:10565000B721ADF80200BDF802002080ADF802507D
:10566000BDF80200ADF80200BDF802002080D8208D
:10567000ADF80200BDF80200ADF80200BDF802006E
:105680002080ADF80250BDF80200ADF80200BDF870
:1056900002002080E020ADF80200BDF80200ADF865
:1056A0000200BDF802002080ADF80250BDF80200F3
:1056B000ADF80200BDF802002080ADF802A0BDF8F0
:1056C00002004FF0440AADF80200BDF8020020804D
:1056D000ADF80250BDF80200ADF80200BDF80200BE
:1056E0002080E220ADF80200BDF80200ADF8020013
:1056F000BDF8020024F8020CADF80280BDF80200EB
:10570000ADF80200BDF802002080ADF80250BDF8EF
:105710000200ADF80200BDF8020020800B20ADF8B9
:105720000200BDF80200ADF80200BDF802002080C2
:10573000ADF80250BDF80200ADF80200BDF802005D
:1057400020801B20ADF80200BDF80200ADF8020079
:10575000BDF802002080ADF80250BDF80200ADF89F
:105760000200BDF8020020803420ADF80200BDF830
:105770000200ADF80200BDF802002080ADF8025032
:10578000BDF80200ADF80200BDF802002080ADF8BF
:1057900002A0BDF80200ADF80200BDF802002080B2
:1057A000ADF80250BDF80200ADF80200BDF80200ED
:1057B00020804F20ADF80200BDF80200ADF80200D5
:1057C000BDF802002080ADF80250BDF80200ADF82F
:1057D0000200BDF8020020806120ADF80200BDF893
:1057E0000200ADF80200BDF802002080ADF80250C2
:1057F000BDF80200ADF80200BDF80200208079205B
:10580000ADF80200BDF80200ADF80200BDF80200DC
:105810002080ADF80250BDF80200ADF80200BDF8DE
:1058200002002080ADF802E0BDF80200ADF80200F1
:10583000BDF802002080ADF80250BDF80200ADF8BE
:105840000200BDF802002080ADF80290BDF8020011
:10585000ADF80200BDF802002080ADF80250BDF89E
:105860000200ADF80200BDF802002080ADF8023061
:10587000BDF80200ADF80200BDF802002080ADF8CE
:105880000250BDF80200ADF80200BDF80200208011
:10589000ADF80210BDF80200ADF80200BDF802003C
:1058A0002080ADF80250BDF80200ADF80200BDF84E
:1058B00002002080ADF80270BDF80200ADF80200D1
:1058C000BDF802002080ADF80250BDF80200ADF82E
:1058D0000200BDF802002080ADF80220BDF80200F1
:1058E000ADF80200BDF802002080ADF80250BDF80E
:1058F0000200ADF80200BDF802002080ADF80260A1
:10590000BDF80200ADF80200BDF802002080ADF83D
:105910000250BDF80200ADF80200BDF80200208080
:10592000D620ADF80200BDF80200ADF80200BDF8C7
:1059300002002080ADF80250BDF80200ADF8020070
:10594000BDF802002080DD20ADF80200BDF80200A5
:10595000ADF80200BDF802002080ADF80250BDF89D
:105960000200ADF80200BDF802002080ADF802C0D0
:10597000BDF80200ADF80200BDF802002080ADF8CD
:105980000250BDF80200ADF80200BDF80200208010
:10599000E320ADF80200BDF80200ADF80200BDF84A
:1059A000020024F8020CADF80280BDF802004FF0AE
:1059B0009308ADF80200BDF802002080ADF8025057
:1059C000BDF80200ADF80200BDF8020020800A20F8
:1059D000ADF80200BDF80200ADF80200BDF802000B
:1059E0002080ADF80250BDF80200ADF80200BDF80D
:1059F000020020801C20ADF80200BDF80200ADF8C6
:105A00000200BDF802002080ADF80250BDF802008F
:105A1000ADF80200BDF8020020803320ADF802008E
:105A2000BDF80200ADF80200BDF802002080ADF81C
:105A30000250BDF80200ADF80200BDF8020020805F
:105A4000ADF802A0BDF802004FF0740AADF80200F4
:105A5000BDF802002080ADF80250BDF80200ADF89C
:105A60000200BDF8020020805020ADF80200BDF811
:105A70000200ADF80200BDF802002080ADF802502F
:105A8000BDF80200ADF80200BDF8020020806220DF
:105A9000ADF80200BDF80200ADF80200BDF802004A
:105AA0002080ADF80250BDF80200ADF80200BDF84C
:105AB000020020807820ADF80200BDF80200ADF8A9
:105AC0000200BDF802002080ADF80250BDF80200CF
:105AD000ADF80200BDF802002080ADF802E0BDF88C
